{
    "contractName": "MonkeyHelper",
    "abi": [
        {
            "anonymous": false,
            "inputs": [
                {
                    "indexed": false,
                    "internalType": "uint256",
                    "name": "monkeyId",
                    "type": "uint256"
                },
                {
                    "indexed": false,
                    "internalType": "string",
                    "name": "name",
                    "type": "string"
                },
                {
                    "indexed": false,
                    "internalType": "uint256",
                    "name": "dna",
                    "type": "uint256"
                }
            ],
            "name": "NewMonkey",
            "type": "event"
        },
        {
            "anonymous": false,
            "inputs": [
                {
                    "indexed": true,
                    "internalType": "address",
                    "name": "previousOwner",
                    "type": "address"
                },
                {
                    "indexed": true,
                    "internalType": "address",
                    "name": "newOwner",
                    "type": "address"
                }
            ],
            "name": "OwnershipTransferred",
            "type": "event"
        },
        {
            "inputs": [
                {
                    "internalType": "uint256",
                    "name": "_monkeyId",
                    "type": "uint256"
                },
                {
                    "internalType": "uint256",
                    "name": "_newDna",
                    "type": "uint256"
                }
            ],
            "name": "changeDna",
            "outputs": [],
            "stateMutability": "nonpayable",
            "type": "function"
        },
        {
            "inputs": [
                {
                    "internalType": "uint256",
                    "name": "_monkeyId",
                    "type": "uint256"
                },
                {
                    "internalType": "string",
                    "name": "_newName",
                    "type": "string"
                }
            ],
            "name": "changeName",
            "outputs": [],
            "stateMutability": "nonpayable",
            "type": "function"
        },
        {
            "inputs": [
                {
                    "internalType": "string",
                    "name": "_name",
                    "type": "string"
                }
            ],
            "name": "createRandomMonkey",
            "outputs": [],
            "stateMutability": "nonpayable",
            "type": "function"
        },
        {
            "inputs": [
                {
                    "internalType": "uint256",
                    "name": "_zombieId",
                    "type": "uint256"
                },
                {
                    "internalType": "uint256",
                    "name": "_kittyId",
                    "type": "uint256"
                }
            ],
            "name": "feedOnKitty",
            "outputs": [],
            "stateMutability": "nonpayable",
            "type": "function"
        },
        {
            "inputs": [
                {
                    "internalType": "address",
                    "name": "_owner",
                    "type": "address"
                }
            ],
            "name": "getMonkeysByOwner",
            "outputs": [
                {
                    "internalType": "uint256[]",
                    "name": "",
                    "type": "uint256[]"
                }
            ],
            "stateMutability": "view",
            "type": "function"
        },
        {
            "inputs": [
                {
                    "internalType": "uint256",
                    "name": "",
                    "type": "uint256"
                }
            ],
            "name": "monkeyToOwner",
            "outputs": [
                {
                    "internalType": "address",
                    "name": "",
                    "type": "address"
                }
            ],
            "stateMutability": "view",
            "type": "function"
        },
        {
            "inputs": [
                {
                    "internalType": "uint256",
                    "name": "",
                    "type": "uint256"
                }
            ],
            "name": "monkeys",
            "outputs": [
                {
                    "internalType": "string",
                    "name": "name",
                    "type": "string"
                },
                {
                    "internalType": "uint256",
                    "name": "dna",
                    "type": "uint256"
                },
                {
                    "internalType": "uint32",
                    "name": "level",
                    "type": "uint32"
                },
                {
                    "internalType": "uint32",
                    "name": "readyTime",
                    "type": "uint32"
                }
            ],
            "stateMutability": "view",
            "type": "function"
        },
        {
            "inputs": [],
            "name": "owner",
            "outputs": [
                {
                    "internalType": "address",
                    "name": "",
                    "type": "address"
                }
            ],
            "stateMutability": "view",
            "type": "function"
        },
        {
            "inputs": [],
            "name": "renounceOwnership",
            "outputs": [],
            "stateMutability": "nonpayable",
            "type": "function"
        },
        {
            "inputs": [
                {
                    "internalType": "address",
                    "name": "_address",
                    "type": "address"
                }
            ],
            "name": "setKittyContractAddress",
            "outputs": [],
            "stateMutability": "nonpayable",
            "type": "function"
        },
        {
            "inputs": [
                {
                    "internalType": "address",
                    "name": "newOwner",
                    "type": "address"
                }
            ],
            "name": "transferOwnership",
            "outputs": [],
            "stateMutability": "nonpayable",
            "type": "function"
        }
    ],
    "bytecode": "6080604052601060018190556200001890600a620001a6565b600255620151806003553480156200002f57600080fd5b506200003b3362000041565b620001bb565b600080546001600160a01b038381166001600160a01b0319831681178455604051919092169283917f8be0079c531659141344cd1fd0a4f28419497f9722a3daafe3b4186f6b6457e09190a35050565b634e487b7160e01b600052601160045260246000fd5b600181815b80851115620000e8578160001904821115620000cc57620000cc62000091565b80851615620000da57918102915b93841c9390800290620000ac565b509250929050565b6000826200010157506001620001a0565b816200011057506000620001a0565b8160018114620001295760028114620001345762000154565b6001915050620001a0565b60ff84111562000148576200014862000091565b50506001821b620001a0565b5060208310610133831016604e8410600b841016171562000179575081810a620001a0565b620001858383620000a7565b80600019048211156200019c576200019c62000091565b0290505b92915050565b6000620001b48383620000f0565b9392505050565b61100f80620001cb6000396000f3fe608060405234801561001057600080fd5b50600436106100a95760003560e01c8063a6fb702c11610071578063a6fb702c1461011b578063c39cbef11461013e578063e9e5f32c14610151578063ed0a13ce1461017a578063f2fde38b1461018d578063f62769b6146101a057600080fd5b806317a7f4cc146100ae5780635f4623f1146100c35780635faf2880146100d6578063715018a6146100e95780638da5cb5b146100f1575b600080fd5b6100c16100bc3660046109dd565b6101c0565b005b6100c16100d13660046109ff565b61026b565b6100c16100e43660046109dd565b610295565b6100c1610323565b6000546001600160a01b03165b6040516001600160a01b0390911681526020015b60405180910390f35b61012e610129366004610a28565b610337565b6040516101129493929190610a91565b6100c161014c366004610ac7565b61040c565b6100fe61015f366004610a28565b6005602052600090815260409020546001600160a01b031681565b6100c1610188366004610b59565b6104a6565b6100c161019b3660046109ff565b6104c1565b6101b36101ae3660046109ff565b61053f565b6040516101129190610c0a565b60075460405163e98b7f4d60e01b8152600481018390526000916001600160a01b03169063e98b7f4d9060240161014060405180830381865afa15801561020b573d6000803e3d6000fd5b505050506040513d601f19601f8201168201806040525081019061022f9190610c63565b6040805180820190915260058152646b6974747960d81b6020820152909a5061026699508c98508a97509550610616945050505050565b505050565b610273610768565b600780546001600160a01b0319166001600160a01b0392909216919091179055565b60148281600482815481106102ac576102ac610ce5565b600091825260209091206002600390920201015463ffffffff1610156102d157600080fd5b6000848152600560205260409020546001600160a01b031633146102f457600080fd5b826004858154811061030857610308610ce5565b90600052602060002090600302016001018190555050505050565b61032b610768565b61033560006107c2565b565b6004818154811061034757600080fd5b906000526020600020906003020160009150905080600001805461036a90610cfb565b80601f016020809104026020016040519081016040528092919081815260200182805461039690610cfb565b80156103e35780601f106103b8576101008083540402835291602001916103e3565b820191906000526020600020905b8154815290600101906020018083116103c657829003601f168201915b50505050600183015460029093015491929163ffffffff80821692506401000000009091041684565b600283816004828154811061042357610423610ce5565b600091825260209091206002600390920201015463ffffffff16101561044857600080fd5b6000858152600560205260409020546001600160a01b0316331461046b57600080fd5b83836004878154811061048057610480610ce5565b9060005260206000209060030201600001918261049e929190610d7b565b505050505050565b60006104b182610812565b90506104bd828261086f565b5050565b6104c9610768565b6001600160a01b0381166105335760405162461bcd60e51b815260206004820152602660248201527f4f776e61626c653a206e6577206f776e657220697320746865207a65726f206160448201526564647265737360d01b60648201526084015b60405180910390fd5b61053c816107c2565b50565b6001600160a01b0381166000908152600660205260408120546060919067ffffffffffffffff81111561057457610574610b43565b60405190808252806020026020018201604052801561059d578160200160208202803683370190505b5090506000805b60045481101561060d576000818152600560205260409020546001600160a01b038087169116036105fb57808383815181106105e2576105e2610ce5565b6020908102919091010152816105f781610e51565b9250505b8061060581610e51565b9150506105a4565b50909392505050565b6000838152600560205260409020546001600160a01b0316331461063957600080fd5b60006004848154811061064e5761064e610ce5565b9060005260206000209060030201905061067e81600201544263ffffffff64010000000090920491909116111590565b61068757600080fd5b6002546106949084610e80565b9250600060028483600101546106aa9190610e94565b6106b49190610ead565b604051646b6974747960d81b602082015290915060250160405160208183030381529060405280519060200120836040516020016106f29190610ec1565b604051602081830303815290604052805190602001200361073057610718606482610e80565b6107229082610edd565b61072d906063610e94565b90505b610758604051806040016040528060068152602001654e6f4e616d6560d01b8152508261086f565b610761826109ab565b5050505050565b6000546001600160a01b031633146103355760405162461bcd60e51b815260206004820181905260248201527f4f776e61626c653a2063616c6c6572206973206e6f7420746865206f776e6572604482015260640161052a565b600080546001600160a01b038381166001600160a01b0319831681178455604051919092169283917f8be0079c531659141344cd1fd0a4f28419497f9722a3daafe3b4186f6b6457e09190a35050565b336000908152600660205260408120541561082c57600080fd5b60008260405160200161083f9190610ec1565b6040516020818303038152906040528051906020012060001c9050600254816108689190610e80565b9392505050565b60046040518060800160405280848152602001838152602001600163ffffffff168152602001600354426108a39190610e94565b63ffffffff16905281546001810183556000928352602090922081519192600302019081906108d29082610ef0565b50602082015160018083019190915560408301516002909201805460609094015163ffffffff9081166401000000000267ffffffffffffffff1990951693169290921792909217905560045460009161092a91610edd565b600081815260056020908152604080832080546001600160a01b0319163390811790915583526006909152812080549293509061096683610e51565b91905055507fef8fdeebda61b105f30017ffd88312335d077ca31c4d00d0d709fd8e559f740e81848460405161099e93929190610fb0565b60405180910390a1505050565b6003546109b89042610e94565b8160020160046101000a81548163ffffffff021916908363ffffffff16021790555050565b600080604083850312156109f057600080fd5b50508035926020909101359150565b600060208284031215610a1157600080fd5b81356001600160a01b038116811461086857600080fd5b600060208284031215610a3a57600080fd5b5035919050565b60005b83811015610a5c578181015183820152602001610a44565b50506000910152565b60008151808452610a7d816020860160208601610a41565b601f01601f19169290920160200192915050565b608081526000610aa46080830187610a65565b60208301959095525063ffffffff92831660408201529116606090910152919050565b600080600060408486031215610adc57600080fd5b83359250602084013567ffffffffffffffff80821115610afb57600080fd5b818601915086601f830112610b0f57600080fd5b813581811115610b1e57600080fd5b876020828501011115610b3057600080fd5b6020830194508093505050509250925092565b634e487b7160e01b600052604160045260246000fd5b600060208284031215610b6b57600080fd5b813567ffffffffffffffff80821115610b8357600080fd5b818401915084601f830112610b9757600080fd5b813581811115610ba957610ba9610b43565b604051601f8201601f19908116603f01168101908382118183101715610bd157610bd1610b43565b81604052828152876020848701011115610bea57600080fd5b826020860160208301376000928101602001929092525095945050505050565b6020808252825182820181905260009190848201906040850190845b81811015610c4257835183529284019291840191600101610c26565b50909695505050505050565b80518015158114610c5e57600080fd5b919050565b6000806000806000806000806000806101408b8d031215610c8357600080fd5b610c8c8b610c4e565b9950610c9a60208c01610c4e565b985060408b0151975060608b0151965060808b0151955060a08b0151945060c08b0151935060e08b015192506101008b015191506101208b015190509295989b9194979a5092959850565b634e487b7160e01b600052603260045260246000fd5b600181811c90821680610d0f57607f821691505b602082108103610d2f57634e487b7160e01b600052602260045260246000fd5b50919050565b601f82111561026657600081815260208120601f850160051c81016020861015610d5c5750805b601f850160051c820191505b8181101561049e57828155600101610d68565b67ffffffffffffffff831115610d9357610d93610b43565b610da783610da18354610cfb565b83610d35565b6000601f841160018114610ddb5760008515610dc35750838201355b600019600387901b1c1916600186901b178355610761565b600083815260209020601f19861690835b82811015610e0c5786850135825560209485019460019092019101610dec565b5086821015610e295760001960f88860031b161c19848701351681555b505060018560011b0183555050505050565b634e487b7160e01b600052601160045260246000fd5b600060018201610e6357610e63610e3b565b5060010190565b634e487b7160e01b600052601260045260246000fd5b600082610e8f57610e8f610e6a565b500690565b80820180821115610ea757610ea7610e3b565b92915050565b600082610ebc57610ebc610e6a565b500490565b60008251610ed3818460208701610a41565b9190910192915050565b81810381811115610ea757610ea7610e3b565b815167ffffffffffffffff811115610f0a57610f0a610b43565b610f1e81610f188454610cfb565b84610d35565b602080601f831160018114610f535760008415610f3b5750858301515b600019600386901b1c1916600185901b17855561049e565b600085815260208120601f198616915b82811015610f8257888601518255948401946001909101908401610f63565b5085821015610fa05787850151600019600388901b60f8161c191681555b5050505050600190811b01905550565b838152606060208201526000610fc96060830185610a65565b905082604083015294935050505056fea2646970667358221220c2159f2b9320c66ea8f069236e60c68169102b50400c5b6ed0edbcbc3ccceb9764736f6c63430008130033",
    "sourcePath": "/Users/coates/Documents/courses/madmonkeys/contracts/MonkeyHelper.sol",
    "compiler": {
        "name": "solc",
        "version": "0.8.19+commit.7dd6d404"
    },
    "functionHashes": {
        "changeDna(uint256,uint256)": "5faf2880",
        "changeName(uint256,string)": "c39cbef1",
        "createRandomMonkey(string)": "ed0a13ce",
        "feedOnKitty(uint256,uint256)": "17a7f4cc",
        "getMonkeysByOwner(address)": "f62769b6",
        "monkeyToOwner(uint256)": "e9e5f32c",
        "monkeys(uint256)": "a6fb702c",
        "owner()": "8da5cb5b",
        "renounceOwnership()": "715018a6",
        "setKittyContractAddress(address)": "5f4623f1",
        "transferOwnership(address)": "f2fde38b"
    },
    "gasEstimates": {
        "creation": {
            "codeDepositCost": "822200",
            "executionCost": "93343",
            "totalCost": "915543"
        },
        "external": {
            "changeDna(uint256,uint256)": "31158",
            "changeName(uint256,string)": "infinite",
            "createRandomMonkey(string)": "infinite",
            "feedOnKitty(uint256,uint256)": "infinite",
            "getMonkeysByOwner(address)": "infinite",
            "monkeyToOwner(uint256)": "2510",
            "monkeys(uint256)": "infinite",
            "owner()": "2398",
            "renounceOwnership()": "infinite",
            "setKittyContractAddress(address)": "26723",
            "transferOwnership(address)": "28386"
        }
    }
}