{
    "contractName": "MonkeyFeeding",
    "abi": [
        {
            "anonymous": false,
            "inputs": [
                {
                    "indexed": false,
                    "internalType": "uint256",
                    "name": "monkeyId",
                    "type": "uint256"
                },
                {
                    "indexed": false,
                    "internalType": "string",
                    "name": "name",
                    "type": "string"
                },
                {
                    "indexed": false,
                    "internalType": "uint256",
                    "name": "dna",
                    "type": "uint256"
                }
            ],
            "name": "NewMonkey",
            "type": "event"
        },
        {
            "inputs": [
                {
                    "internalType": "string",
                    "name": "_name",
                    "type": "string"
                }
            ],
            "name": "createRandomMonkey",
            "outputs": [],
            "stateMutability": "nonpayable",
            "type": "function"
        },
        {
            "inputs": [
                {
                    "internalType": "uint256",
                    "name": "_monkeyId",
                    "type": "uint256"
                },
                {
                    "internalType": "uint256",
                    "name": "_targetDna",
                    "type": "uint256"
                }
            ],
            "name": "feedAndMultiply",
            "outputs": [],
            "stateMutability": "nonpayable",
            "type": "function"
        },
        {
            "inputs": [
                {
                    "internalType": "uint256",
                    "name": "",
                    "type": "uint256"
                }
            ],
            "name": "monkeyToOwner",
            "outputs": [
                {
                    "internalType": "address",
                    "name": "",
                    "type": "address"
                }
            ],
            "stateMutability": "view",
            "type": "function"
        },
        {
            "inputs": [
                {
                    "internalType": "uint256",
                    "name": "",
                    "type": "uint256"
                }
            ],
            "name": "monkeys",
            "outputs": [
                {
                    "internalType": "string",
                    "name": "name",
                    "type": "string"
                },
                {
                    "internalType": "uint256",
                    "name": "dna",
                    "type": "uint256"
                }
            ],
            "stateMutability": "view",
            "type": "function"
        }
    ],
    "bytecode": "60806040526010600081905561001690600a610127565b60015534801561002557600080fd5b5061013a565b634e487b7160e01b600052601160045260246000fd5b600181815b8085111561007c5781600019048211156100625761006261002b565b8085161561006f57918102915b93841c9390800290610046565b509250929050565b60008261009357506001610121565b816100a057506000610121565b81600181146100b657600281146100c0576100dc565b6001915050610121565b60ff8411156100d1576100d161002b565b50506001821b610121565b5060208310610133831016604e8410600b84101617156100ff575081810a610121565b6101098383610041565b806000190482111561011d5761011d61002b565b0290505b92915050565b60006101338383610084565b9392505050565b610799806101496000396000f3fe608060405234801561001057600080fd5b506004361061004c5760003560e01c80630dedffb814610051578063a6fb702c14610066578063e9e5f32c14610090578063ed0a13ce146100d1575b600080fd5b61006461005f3660046103b2565b6100e4565b005b6100796100743660046103d4565b61018a565b60405161008792919061043d565b60405180910390f35b6100b961009e3660046103d4565b6003602052600090815260409020546001600160a01b031681565b6040516001600160a01b039091168152602001610087565b6100646100df366004610475565b610246565b6000828152600360205260409020546001600160a01b0316331461010757600080fd5b60006002838154811061011c5761011c610526565b906000526020600020906002020190506001548261013a9190610552565b915060006002838360010154610150919061057c565b61015a9190610595565b9050610184604051806040016040528060068152602001654e6f4e616d6560d01b81525082610261565b50505050565b6002818154811061019a57600080fd5b90600052602060002090600202016000915090508060000180546101bd906105a9565b80601f01602080910402602001604051908101604052809291908181526020018280546101e9906105a9565b80156102365780601f1061020b57610100808354040283529160200191610236565b820191906000526020600020905b81548152906001019060200180831161021957829003601f168201915b5050505050908060010154905082565b600061025182610355565b905061025d8282610261565b5050565b6040805180820190915282815260208101829052600280546001810182556000829052825191027f405787fa12a823e0f2b7631cc41b3ba8828b3321ca811111fa75cd3aa3bb5ace019081906102b79082610632565b50602091909101516001918201556002546000916102d4916106f2565b600081815260036020908152604080832080546001600160a01b0319163390811790915583526004909152812080549293509061031083610705565b91905055507fef8fdeebda61b105f30017ffd88312335d077ca31c4d00d0d709fd8e559f740e8184846040516103489392919061071e565b60405180910390a1505050565b336000908152600460205260408120541561036f57600080fd5b6000826040516020016103829190610747565b6040516020818303038152906040528051906020012060001c9050600154816103ab9190610552565b9392505050565b600080604083850312156103c557600080fd5b50508035926020909101359150565b6000602082840312156103e657600080fd5b5035919050565b60005b838110156104085781810151838201526020016103f0565b50506000910152565b600081518084526104298160208601602086016103ed565b601f01601f19169290920160200192915050565b6040815260006104506040830185610411565b90508260208301529392505050565b634e487b7160e01b600052604160045260246000fd5b60006020828403121561048757600080fd5b813567ffffffffffffffff8082111561049f57600080fd5b818401915084601f8301126104b357600080fd5b8135818111156104c5576104c561045f565b604051601f8201601f19908116603f011681019083821181831017156104ed576104ed61045f565b8160405282815287602084870101111561050657600080fd5b826020860160208301376000928101602001929092525095945050505050565b634e487b7160e01b600052603260045260246000fd5b634e487b7160e01b600052601260045260246000fd5b6000826105615761056161053c565b500690565b634e487b7160e01b600052601160045260246000fd5b8082018082111561058f5761058f610566565b92915050565b6000826105a4576105a461053c565b500490565b600181811c908216806105bd57607f821691505b6020821081036105dd57634e487b7160e01b600052602260045260246000fd5b50919050565b601f82111561062d57600081815260208120601f850160051c8101602086101561060a5750805b601f850160051c820191505b8181101561062957828155600101610616565b5050505b505050565b815167ffffffffffffffff81111561064c5761064c61045f565b6106608161065a84546105a9565b846105e3565b602080601f831160018114610695576000841561067d5750858301515b600019600386901b1c1916600185901b178555610629565b600085815260208120601f198616915b828110156106c4578886015182559484019460019091019084016106a5565b50858210156106e25787850151600019600388901b60f8161c191681555b5050505050600190811b01905550565b8181038181111561058f5761058f610566565b60006001820161071757610717610566565b5060010190565b8381526060602082015260006107376060830185610411565b9050826040830152949350505050565b600082516107598184602087016103ed565b919091019291505056fea2646970667358221220aea0dccd317de157d3d74db24e1be5694c933e9befddd0481d39d55c82c34bab64736f6c63430008130033",
    "sourcePath": "/Users/coates/Documents/courses/madmonkeys/contracts/MonkeyFeeding.sol",
    "compiler": {
        "name": "solc",
        "version": "0.8.19+commit.7dd6d404"
    },
    "functionHashes": {
        "createRandomMonkey(string)": "ed0a13ce",
        "feedAndMultiply(uint256,uint256)": "0dedffb8",
        "monkeyToOwner(uint256)": "e9e5f32c",
        "monkeys(uint256)": "a6fb702c"
    },
    "gasEstimates": {
        "creation": {
            "codeDepositCost": "389000",
            "executionCost": "44975",
            "totalCost": "433975"
        },
        "external": {
            "createRandomMonkey(string)": "infinite",
            "feedAndMultiply(uint256,uint256)": "infinite",
            "monkeyToOwner(uint256)": "2499",
            "monkeys(uint256)": "infinite"
        }
    }
}