{
    "contractName": "MonkeyFactory",
    "abi": [
        {
            "anonymous": false,
            "inputs": [
                {
                    "indexed": false,
                    "internalType": "uint256",
                    "name": "monkeyId",
                    "type": "uint256"
                },
                {
                    "indexed": false,
                    "internalType": "string",
                    "name": "name",
                    "type": "string"
                },
                {
                    "indexed": false,
                    "internalType": "uint256",
                    "name": "dna",
                    "type": "uint256"
                }
            ],
            "name": "NewMonkey",
            "type": "event"
        },
        {
            "anonymous": false,
            "inputs": [
                {
                    "indexed": true,
                    "internalType": "address",
                    "name": "previousOwner",
                    "type": "address"
                },
                {
                    "indexed": true,
                    "internalType": "address",
                    "name": "newOwner",
                    "type": "address"
                }
            ],
            "name": "OwnershipTransferred",
            "type": "event"
        },
        {
            "inputs": [
                {
                    "internalType": "string",
                    "name": "_name",
                    "type": "string"
                }
            ],
            "name": "createRandomMonkey",
            "outputs": [],
            "stateMutability": "nonpayable",
            "type": "function"
        },
        {
            "inputs": [
                {
                    "internalType": "uint256",
                    "name": "",
                    "type": "uint256"
                }
            ],
            "name": "monkeyToOwner",
            "outputs": [
                {
                    "internalType": "address",
                    "name": "",
                    "type": "address"
                }
            ],
            "stateMutability": "view",
            "type": "function"
        },
        {
            "inputs": [
                {
                    "internalType": "uint256",
                    "name": "",
                    "type": "uint256"
                }
            ],
            "name": "monkeys",
            "outputs": [
                {
                    "internalType": "string",
                    "name": "name",
                    "type": "string"
                },
                {
                    "internalType": "uint256",
                    "name": "dna",
                    "type": "uint256"
                },
                {
                    "internalType": "uint32",
                    "name": "level",
                    "type": "uint32"
                },
                {
                    "internalType": "uint32",
                    "name": "readyTime",
                    "type": "uint32"
                }
            ],
            "stateMutability": "view",
            "type": "function"
        },
        {
            "inputs": [],
            "name": "owner",
            "outputs": [
                {
                    "internalType": "address",
                    "name": "",
                    "type": "address"
                }
            ],
            "stateMutability": "view",
            "type": "function"
        },
        {
            "inputs": [],
            "name": "renounceOwnership",
            "outputs": [],
            "stateMutability": "nonpayable",
            "type": "function"
        },
        {
            "inputs": [
                {
                    "internalType": "address",
                    "name": "newOwner",
                    "type": "address"
                }
            ],
            "name": "transferOwnership",
            "outputs": [],
            "stateMutability": "nonpayable",
            "type": "function"
        }
    ],
    "bytecode": "6080604052601060018190556200001890600a620001a6565b600255620151806003553480156200002f57600080fd5b506200003b3362000041565b620001bb565b600080546001600160a01b038381166001600160a01b0319831681178455604051919092169283917f8be0079c531659141344cd1fd0a4f28419497f9722a3daafe3b4186f6b6457e09190a35050565b634e487b7160e01b600052601160045260246000fd5b600181815b80851115620000e8578160001904821115620000cc57620000cc62000091565b80851615620000da57918102915b93841c9390800290620000ac565b509250929050565b6000826200010157506001620001a0565b816200011057506000620001a0565b8160018114620001295760028114620001345762000154565b6001915050620001a0565b60ff84111562000148576200014862000091565b50506001821b620001a0565b5060208310610133831016604e8410600b841016171562000179575081810a620001a0565b620001858383620000a7565b80600019048211156200019c576200019c62000091565b0290505b92915050565b6000620001b48383620000f0565b9392505050565b6108a280620001cb6000396000f3fe608060405234801561001057600080fd5b50600436106100625760003560e01c8063715018a6146100675780638da5cb5b14610071578063a6fb702c1461009b578063e9e5f32c146100be578063ed0a13ce146100e7578063f2fde38b146100fa575b600080fd5b61006f61010d565b005b6000546001600160a01b03165b6040516001600160a01b0390911681526020015b60405180910390f35b6100ae6100a93660046104d2565b610121565b604051610092949392919061053b565b61007e6100cc3660046104d2565b6005602052600090815260409020546001600160a01b031681565b61006f6100f5366004610587565b6101f6565b61006f610108366004610638565b610211565b61011561028f565b61011f60006102e9565b565b6004818154811061013157600080fd5b906000526020600020906003020160009150905080600001805461015490610661565b80601f016020809104026020016040519081016040528092919081815260200182805461018090610661565b80156101cd5780601f106101a2576101008083540402835291602001916101cd565b820191906000526020600020905b8154815290600101906020018083116101b057829003601f168201915b50505050600183015460029093015491929163ffffffff80821692506401000000009091041684565b600061020182610339565b905061020d8282610396565b5050565b61021961028f565b6001600160a01b0381166102835760405162461bcd60e51b815260206004820152602660248201527f4f776e61626c653a206e6577206f776e657220697320746865207a65726f206160448201526564647265737360d01b60648201526084015b60405180910390fd5b61028c816102e9565b50565b6000546001600160a01b0316331461011f5760405162461bcd60e51b815260206004820181905260248201527f4f776e61626c653a2063616c6c6572206973206e6f7420746865206f776e6572604482015260640161027a565b600080546001600160a01b038381166001600160a01b0319831681178455604051919092169283917f8be0079c531659141344cd1fd0a4f28419497f9722a3daafe3b4186f6b6457e09190a35050565b336000908152600660205260408120541561035357600080fd5b600082604051602001610366919061069b565b6040516020818303038152906040528051906020012060001c90506002548161038f91906106b7565b9392505050565b60046040518060800160405280848152602001838152602001600163ffffffff168152602001600354426103ca91906106ef565b63ffffffff16905281546001810183556000928352602090922081519192600302019081906103f99082610757565b50602082015160018083019190915560408301516002909201805460609094015163ffffffff9081166401000000000267ffffffffffffffff1990951693169290921792909217905560045460009161045191610817565b600081815260056020908152604080832080546001600160a01b0319163390811790915583526006909152812080549293509061048d8361082a565b91905055507fef8fdeebda61b105f30017ffd88312335d077ca31c4d00d0d709fd8e559f740e8184846040516104c593929190610843565b60405180910390a1505050565b6000602082840312156104e457600080fd5b5035919050565b60005b838110156105065781810151838201526020016104ee565b50506000910152565b600081518084526105278160208601602086016104eb565b601f01601f19169290920160200192915050565b60808152600061054e608083018761050f565b60208301959095525063ffffffff92831660408201529116606090910152919050565b634e487b7160e01b600052604160045260246000fd5b60006020828403121561059957600080fd5b813567ffffffffffffffff808211156105b157600080fd5b818401915084601f8301126105c557600080fd5b8135818111156105d7576105d7610571565b604051601f8201601f19908116603f011681019083821181831017156105ff576105ff610571565b8160405282815287602084870101111561061857600080fd5b826020860160208301376000928101602001929092525095945050505050565b60006020828403121561064a57600080fd5b81356001600160a01b038116811461038f57600080fd5b600181811c9082168061067557607f821691505b60208210810361069557634e487b7160e01b600052602260045260246000fd5b50919050565b600082516106ad8184602087016104eb565b9190910192915050565b6000826106d457634e487b7160e01b600052601260045260246000fd5b500690565b634e487b7160e01b600052601160045260246000fd5b80820180821115610702576107026106d9565b92915050565b601f82111561075257600081815260208120601f850160051c8101602086101561072f5750805b601f850160051c820191505b8181101561074e5782815560010161073b565b5050505b505050565b815167ffffffffffffffff81111561077157610771610571565b6107858161077f8454610661565b84610708565b602080601f8311600181146107ba57600084156107a25750858301515b600019600386901b1c1916600185901b17855561074e565b600085815260208120601f198616915b828110156107e9578886015182559484019460019091019084016107ca565b50858210156108075787850151600019600388901b60f8161c191681555b5050505050600190811b01905550565b81810381811115610702576107026106d9565b60006001820161083c5761083c6106d9565b5060010190565b83815260606020820152600061085c606083018561050f565b905082604083015294935050505056fea2646970667358221220341e953d8643e17ff56f057036cfbd741df19c58bca03addd498f6275238af0c64736f6c63430008130033",
    "sourcePath": "/Users/coates/Documents/courses/madmonkeys/contracts/MonkeyFactory.sol",
    "compiler": {
        "name": "solc",
        "version": "0.8.19+commit.7dd6d404"
    },
    "functionHashes": {
        "createRandomMonkey(string)": "ed0a13ce",
        "monkeyToOwner(uint256)": "e9e5f32c",
        "monkeys(uint256)": "a6fb702c",
        "owner()": "8da5cb5b",
        "renounceOwnership()": "715018a6",
        "transferOwnership(address)": "f2fde38b"
    },
    "gasEstimates": {
        "creation": {
            "codeDepositCost": "442000",
            "executionCost": "92966",
            "totalCost": "534966"
        },
        "external": {
            "createRandomMonkey(string)": "infinite",
            "monkeyToOwner(uint256)": "2510",
            "monkeys(uint256)": "infinite",
            "owner()": "2309",
            "renounceOwnership()": "infinite",
            "transferOwnership(address)": "28386"
        },
        "internal": {
            "_createMonkey(string memory,uint256)": "infinite",
            "_generateRandomDna(string memory)": "infinite"
        }
    }
}