{
    "contractName": "MonkeyFactory",
    "abi": [
        {
            "inputs": [
                {
                    "internalType": "string",
                    "name": "_name",
                    "type": "string"
                }
            ],
            "name": "createRandomMonkey",
            "outputs": [],
            "stateMutability": "nonpayable",
            "type": "function"
        },
        {
            "inputs": [
                {
                    "internalType": "uint256",
                    "name": "",
                    "type": "uint256"
                }
            ],
            "name": "monkeys",
            "outputs": [
                {
                    "internalType": "string",
                    "name": "name",
                    "type": "string"
                },
                {
                    "internalType": "uint256",
                    "name": "dna",
                    "type": "uint256"
                }
            ],
            "stateMutability": "view",
            "type": "function"
        }
    ],
    "bytecode": "60806040526010600081905561001690600a610127565b60015534801561002557600080fd5b5061013a565b634e487b7160e01b600052601160045260246000fd5b600181815b8085111561007c5781600019048211156100625761006261002b565b8085161561006f57918102915b93841c9390800290610046565b509250929050565b60008261009357506001610121565b816100a057506000610121565b81600181146100b657600281146100c0576100dc565b6001915050610121565b60ff8411156100d1576100d161002b565b50506001821b610121565b5060208310610133831016604e8410600b84101617156100ff575081810a610121565b6101098383610041565b806000190482111561011d5761011d61002b565b0290505b92915050565b60006101338383610084565b9392505050565b6104f8806101496000396000f3fe608060405234801561001057600080fd5b50600436106100365760003560e01c8063a6fb702c1461003b578063ed0a13ce14610065575b600080fd5b61004e6100493660046101fc565b61007a565b60405161005c929190610239565b60405180910390f35b61007861007336600461028a565b610136565b005b6002818154811061008a57600080fd5b90600052602060002090600202016000915090508060000180546100ad9061033b565b80601f01602080910402602001604051908101604052809291908181526020018280546100d99061033b565b80156101265780601f106100fb57610100808354040283529160200191610126565b820191906000526020600020905b81548152906001019060200180831161010957829003601f168201915b5050505050908060010154905082565b600061014182610151565b905061014d8282610195565b5050565b600080826040516020016101659190610375565b6040516020818303038152906040528051906020012060001c90506001548161018e9190610391565b9392505050565b6040805180820190915282815260208101829052600280546001810182556000829052825191027f405787fa12a823e0f2b7631cc41b3ba8828b3321ca811111fa75cd3aa3bb5ace019081906101eb9082610402565b506020820151816001015550505050565b60006020828403121561020e57600080fd5b5035919050565b60005b83811015610230578181015183820152602001610218565b50506000910152565b6040815260008351806040840152610258816060850160208801610215565b602083019390935250601f91909101601f191601606001919050565b634e487b7160e01b600052604160045260246000fd5b60006020828403121561029c57600080fd5b813567ffffffffffffffff808211156102b457600080fd5b818401915084601f8301126102c857600080fd5b8135818111156102da576102da610274565b604051601f8201601f19908116603f0116810190838211818310171561030257610302610274565b8160405282815287602084870101111561031b57600080fd5b826020860160208301376000928101602001929092525095945050505050565b600181811c9082168061034f57607f821691505b60208210810361036f57634e487b7160e01b600052602260045260246000fd5b50919050565b60008251610387818460208701610215565b9190910192915050565b6000826103ae57634e487b7160e01b600052601260045260246000fd5b500690565b601f8211156103fd57600081815260208120601f850160051c810160208610156103da5750805b601f850160051c820191505b818110156103f9578281556001016103e6565b5050505b505050565b815167ffffffffffffffff81111561041c5761041c610274565b6104308161042a845461033b565b846103b3565b602080601f831160018114610465576000841561044d5750858301515b600019600386901b1c1916600185901b1785556103f9565b600085815260208120601f198616915b8281101561049457888601518255948401946001909101908401610475565b50858210156104b25787850151600019600388901b60f8161c191681555b5050505050600190811b0190555056fea26469706673582212207573df4d7a5066c295db77a04f53d8f320f6275526d96390f4b8351a461ff00b64736f6c63430008130033",
    "sourcePath": "/Users/coates/Documents/courses/madmonkeys/contracts/MonkeyFactory.sol",
    "compiler": {
        "name": "solc",
        "version": "0.8.19+commit.7dd6d404"
    },
    "functionHashes": {
        "createRandomMonkey(string)": "ed0a13ce",
        "monkeys(uint256)": "a6fb702c"
    },
    "gasEstimates": {
        "creation": {
            "codeDepositCost": "254400",
            "executionCost": "44845",
            "totalCost": "299245"
        },
        "external": {
            "createRandomMonkey(string)": "infinite",
            "monkeys(uint256)": "infinite"
        },
        "internal": {
            "_createMonkey(string memory,uint256)": "infinite",
            "_generateRandomDna(string memory)": "infinite"
        }
    }
}