{
    "contractName": "MonkeyFactory",
    "abi": [
        {
            "anonymous": false,
            "inputs": [
                {
                    "indexed": false,
                    "internalType": "uint256",
                    "name": "monkeyId",
                    "type": "uint256"
                },
                {
                    "indexed": false,
                    "internalType": "string",
                    "name": "name",
                    "type": "string"
                },
                {
                    "indexed": false,
                    "internalType": "uint256",
                    "name": "dna",
                    "type": "uint256"
                }
            ],
            "name": "NewMonkey",
            "type": "event"
        },
        {
            "inputs": [
                {
                    "internalType": "string",
                    "name": "_name",
                    "type": "string"
                }
            ],
            "name": "createRandomMonkey",
            "outputs": [],
            "stateMutability": "nonpayable",
            "type": "function"
        },
        {
            "inputs": [
                {
                    "internalType": "uint256",
                    "name": "",
                    "type": "uint256"
                }
            ],
            "name": "monkeys",
            "outputs": [
                {
                    "internalType": "string",
                    "name": "name",
                    "type": "string"
                },
                {
                    "internalType": "uint256",
                    "name": "dna",
                    "type": "uint256"
                }
            ],
            "stateMutability": "view",
            "type": "function"
        }
    ],
    "bytecode": "60806040526010600081905561001690600a610127565b60015534801561002557600080fd5b5061013a565b634e487b7160e01b600052601160045260246000fd5b600181815b8085111561007c5781600019048211156100625761006261002b565b8085161561006f57918102915b93841c9390800290610046565b509250929050565b60008261009357506001610121565b816100a057506000610121565b81600181146100b657600281146100c0576100dc565b6001915050610121565b60ff8411156100d1576100d161002b565b50506001821b610121565b5060208310610133831016604e8410600b84101617156100ff575081810a610121565b6101098383610041565b806000190482111561011d5761011d61002b565b0290505b92915050565b60006101338383610084565b9392505050565b6105a9806101496000396000f3fe608060405234801561001057600080fd5b50600436106100365760003560e01c8063a6fb702c1461003b578063ed0a13ce14610065575b600080fd5b61004e61004936600461024a565b61007a565b60405161005c9291906102b3565b60405180910390f35b6100786100733660046102eb565b610136565b005b6002818154811061008a57600080fd5b90600052602060002090600202016000915090508060000180546100ad9061039c565b80601f01602080910402602001604051908101604052809291908181526020018280546100d99061039c565b80156101265780601f106100fb57610100808354040283529160200191610126565b820191906000526020600020905b81548152906001019060200180831161010957829003601f168201915b5050505050908060010154905082565b600061014182610151565b905061014d8282610195565b5050565b6000808260405160200161016591906103d6565b6040516020818303038152906040528051906020012060001c90506001548161018e91906103f2565b9392505050565b6040805180820190915282815260208101829052600280546001810182556000829052825191027f405787fa12a823e0f2b7631cc41b3ba8828b3321ca811111fa75cd3aa3bb5ace019081906101eb9082610463565b506020919091015160019182015560025460009161020891610523565b90507fef8fdeebda61b105f30017ffd88312335d077ca31c4d00d0d709fd8e559f740e81848460405161023d9392919061054a565b60405180910390a1505050565b60006020828403121561025c57600080fd5b5035919050565b60005b8381101561027e578181015183820152602001610266565b50506000910152565b6000815180845261029f816020860160208601610263565b601f01601f19169290920160200192915050565b6040815260006102c66040830185610287565b90508260208301529392505050565b634e487b7160e01b600052604160045260246000fd5b6000602082840312156102fd57600080fd5b813567ffffffffffffffff8082111561031557600080fd5b818401915084601f83011261032957600080fd5b81358181111561033b5761033b6102d5565b604051601f8201601f19908116603f01168101908382118183101715610363576103636102d5565b8160405282815287602084870101111561037c57600080fd5b826020860160208301376000928101602001929092525095945050505050565b600181811c908216806103b057607f821691505b6020821081036103d057634e487b7160e01b600052602260045260246000fd5b50919050565b600082516103e8818460208701610263565b9190910192915050565b60008261040f57634e487b7160e01b600052601260045260246000fd5b500690565b601f82111561045e57600081815260208120601f850160051c8101602086101561043b5750805b601f850160051c820191505b8181101561045a57828155600101610447565b5050505b505050565b815167ffffffffffffffff81111561047d5761047d6102d5565b6104918161048b845461039c565b84610414565b602080601f8311600181146104c657600084156104ae5750858301515b600019600386901b1c1916600185901b17855561045a565b600085815260208120601f198616915b828110156104f5578886015182559484019460019091019084016104d6565b50858210156105135787850151600019600388901b60f8161c191681555b5050505050600190811b01905550565b8181038181111561054457634e487b7160e01b600052601160045260246000fd5b92915050565b8381526060602082015260006105636060830185610287565b905082604083015294935050505056fea264697066735822122067b168f7c73a7e5128ae943d2f19c644e604825a3b64ff4c592c503761fd104164736f6c63430008130033",
    "sourcePath": "/Users/coates/Documents/courses/madmonkeys/contracts/MonkeyFactory.sol",
    "compiler": {
        "name": "solc",
        "version": "0.8.19+commit.7dd6d404"
    },
    "functionHashes": {
        "createRandomMonkey(string)": "ed0a13ce",
        "monkeys(uint256)": "a6fb702c"
    },
    "gasEstimates": {
        "creation": {
            "codeDepositCost": "289800",
            "executionCost": "44882",
            "totalCost": "334682"
        },
        "external": {
            "createRandomMonkey(string)": "infinite",
            "monkeys(uint256)": "infinite"
        },
        "internal": {
            "_createMonkey(string memory,uint256)": "infinite",
            "_generateRandomDna(string memory)": "infinite"
        }
    }
}