{
    "contractName": "MonkeyFactory",
    "abi": [
        {
            "inputs": [
                {
                    "internalType": "string",
                    "name": "_name",
                    "type": "string"
                },
                {
                    "internalType": "uint256",
                    "name": "_dna",
                    "type": "uint256"
                }
            ],
            "name": "createMonkey",
            "outputs": [],
            "stateMutability": "nonpayable",
            "type": "function"
        },
        {
            "inputs": [
                {
                    "internalType": "uint256",
                    "name": "",
                    "type": "uint256"
                }
            ],
            "name": "monkeys",
            "outputs": [
                {
                    "internalType": "string",
                    "name": "name",
                    "type": "string"
                },
                {
                    "internalType": "uint256",
                    "name": "dna",
                    "type": "uint256"
                }
            ],
            "stateMutability": "view",
            "type": "function"
        }
    ],
    "bytecode": "60806040526010600081905561001690600a610127565b60015534801561002557600080fd5b5061013a565b634e487b7160e01b600052601160045260246000fd5b600181815b8085111561007c5781600019048211156100625761006261002b565b8085161561006f57918102915b93841c9390800290610046565b509250929050565b60008261009357506001610121565b816100a057506000610121565b81600181146100b657600281146100c0576100dc565b6001915050610121565b60ff8411156100d1576100d161002b565b50506001821b610121565b5060208310610133831016604e8410600b84101617156100ff575081810a610121565b6101098383610041565b806000190482111561011d5761011d61002b565b0290505b92915050565b60006101338383610084565b9392505050565b6102de806101496000396000f3fe608060405234801561001057600080fd5b50600436106100365760003560e01c8063461b65861461003b578063a6fb702c1461004f575b600080fd5b61004d61004936600461014b565b5050565b005b61006261005d366004610200565b610079565b604051610070929190610219565b60405180910390f35b6002818154811061008957600080fd5b90600052602060002090600202016000915090508060000180546100ac9061026e565b80601f01602080910402602001604051908101604052809291908181526020018280546100d89061026e565b80156101255780601f106100fa57610100808354040283529160200191610125565b820191906000526020600020905b81548152906001019060200180831161010857829003601f168201915b5050505050908060010154905082565b634e487b7160e01b600052604160045260246000fd5b6000806040838503121561015e57600080fd5b823567ffffffffffffffff8082111561017657600080fd5b818501915085601f83011261018a57600080fd5b81358181111561019c5761019c610135565b604051601f8201601f19908116603f011681019083821181831017156101c4576101c4610135565b816040528281528860208487010111156101dd57600080fd5b826020860160208301376000602093820184015298969091013596505050505050565b60006020828403121561021257600080fd5b5035919050565b604081526000835180604084015260005b81811015610247576020818701810151606086840101520161022a565b506000606082850101526060601f19601f8301168401019150508260208301529392505050565b600181811c9082168061028257607f821691505b6020821081036102a257634e487b7160e01b600052602260045260246000fd5b5091905056fea2646970667358221220caec19dd86a061419203772c94ff29950fb68ed129caf8b1c11d9c248741fc6a64736f6c63430008130033",
    "sourcePath": "/Users/coates/Documents/courses/madmonkeys/contracts/MonkeyFactory.sol",
    "compiler": {
        "name": "solc",
        "version": "0.8.19+commit.7dd6d404"
    },
    "functionHashes": {
        "createMonkey(string,uint256)": "461b6586",
        "monkeys(uint256)": "a6fb702c"
    },
    "gasEstimates": {
        "creation": {
            "codeDepositCost": "146800",
            "executionCost": "44741",
            "totalCost": "191541"
        },
        "external": {
            "createMonkey(string,uint256)": "infinite",
            "monkeys(uint256)": "infinite"
        }
    }
}