{
    "contractName": "MonkeyFactory",
    "abi": [
        {
            "inputs": [
                {
                    "internalType": "uint256",
                    "name": "",
                    "type": "uint256"
                }
            ],
            "name": "monkeys",
            "outputs": [
                {
                    "internalType": "string",
                    "name": "name",
                    "type": "string"
                },
                {
                    "internalType": "uint256",
                    "name": "dna",
                    "type": "uint256"
                }
            ],
            "stateMutability": "view",
            "type": "function"
        }
    ],
    "bytecode": "60806040526010600081905561001690600a610127565b60015534801561002557600080fd5b5061013a565b634e487b7160e01b600052601160045260246000fd5b600181815b8085111561007c5781600019048211156100625761006261002b565b8085161561006f57918102915b93841c9390800290610046565b509250929050565b60008261009357506001610121565b816100a057506000610121565b81600181146100b657600281146100c0576100dc565b6001915050610121565b60ff8411156100d1576100d161002b565b50506001821b610121565b5060208310610133831016604e8410600b84101617156100ff575081810a610121565b6101098383610041565b806000190482111561011d5761011d61002b565b0290505b92915050565b60006101338383610084565b9392505050565b6101f4806101496000396000f3fe608060405234801561001057600080fd5b506004361061002b5760003560e01c8063a6fb702c14610030575b600080fd5b61004361003e366004610116565b61005a565b60405161005192919061012f565b60405180910390f35b6002818154811061006a57600080fd5b906000526020600020906002020160009150905080600001805461008d90610184565b80601f01602080910402602001604051908101604052809291908181526020018280546100b990610184565b80156101065780601f106100db57610100808354040283529160200191610106565b820191906000526020600020905b8154815290600101906020018083116100e957829003601f168201915b5050505050908060010154905082565b60006020828403121561012857600080fd5b5035919050565b604081526000835180604084015260005b8181101561015d5760208187018101516060868401015201610140565b506000606082850101526060601f19601f8301168401019150508260208301529392505050565b600181811c9082168061019857607f821691505b6020821081036101b857634e487b7160e01b600052602260045260246000fd5b5091905056fea2646970667358221220045707743b26b3c9db33040af5fcc5f50c9e34b03d01938e7116b44c43ca843c64736f6c63430008130033",
    "sourcePath": "/Users/coates/Documents/courses/madmonkeys/contracts/MonkeyFactory.sol",
    "compiler": {
        "name": "solc",
        "version": "0.8.19+commit.7dd6d404"
    },
    "functionHashes": {
        "monkeys(uint256)": "a6fb702c"
    },
    "gasEstimates": {
        "creation": {
            "codeDepositCost": "100000",
            "executionCost": "44698",
            "totalCost": "144698"
        },
        "external": {
            "monkeys(uint256)": "infinite"
        },
        "internal": {
            "_createMonkey(string memory,uint256)": "infinite",
            "_generateRandomDna(string memory)": "infinite"
        }
    }
}