{
    "contractName": "MonkeyFeeding",
    "abi": [
        {
            "anonymous": false,
            "inputs": [
                {
                    "indexed": false,
                    "internalType": "uint256",
                    "name": "monkeyId",
                    "type": "uint256"
                },
                {
                    "indexed": false,
                    "internalType": "string",
                    "name": "name",
                    "type": "string"
                },
                {
                    "indexed": false,
                    "internalType": "uint256",
                    "name": "dna",
                    "type": "uint256"
                }
            ],
            "name": "NewMonkey",
            "type": "event"
        },
        {
            "anonymous": false,
            "inputs": [
                {
                    "indexed": true,
                    "internalType": "address",
                    "name": "previousOwner",
                    "type": "address"
                },
                {
                    "indexed": true,
                    "internalType": "address",
                    "name": "newOwner",
                    "type": "address"
                }
            ],
            "name": "OwnershipTransferred",
            "type": "event"
        },
        {
            "inputs": [
                {
                    "internalType": "string",
                    "name": "_name",
                    "type": "string"
                }
            ],
            "name": "createRandomMonkey",
            "outputs": [],
            "stateMutability": "nonpayable",
            "type": "function"
        },
        {
            "inputs": [
                {
                    "internalType": "uint256",
                    "name": "_monkeyId",
                    "type": "uint256"
                },
                {
                    "internalType": "uint256",
                    "name": "_targetDna",
                    "type": "uint256"
                },
                {
                    "internalType": "string",
                    "name": "_species",
                    "type": "string"
                }
            ],
            "name": "feedAndMultiply",
            "outputs": [],
            "stateMutability": "nonpayable",
            "type": "function"
        },
        {
            "inputs": [
                {
                    "internalType": "uint256",
                    "name": "_zombieId",
                    "type": "uint256"
                },
                {
                    "internalType": "uint256",
                    "name": "_kittyId",
                    "type": "uint256"
                }
            ],
            "name": "feedOnKitty",
            "outputs": [],
            "stateMutability": "nonpayable",
            "type": "function"
        },
        {
            "inputs": [
                {
                    "internalType": "uint256",
                    "name": "",
                    "type": "uint256"
                }
            ],
            "name": "monkeyToOwner",
            "outputs": [
                {
                    "internalType": "address",
                    "name": "",
                    "type": "address"
                }
            ],
            "stateMutability": "view",
            "type": "function"
        },
        {
            "inputs": [
                {
                    "internalType": "uint256",
                    "name": "",
                    "type": "uint256"
                }
            ],
            "name": "monkeys",
            "outputs": [
                {
                    "internalType": "string",
                    "name": "name",
                    "type": "string"
                },
                {
                    "internalType": "uint256",
                    "name": "dna",
                    "type": "uint256"
                },
                {
                    "internalType": "uint32",
                    "name": "level",
                    "type": "uint32"
                },
                {
                    "internalType": "uint32",
                    "name": "readyTime",
                    "type": "uint32"
                }
            ],
            "stateMutability": "view",
            "type": "function"
        },
        {
            "inputs": [],
            "name": "owner",
            "outputs": [
                {
                    "internalType": "address",
                    "name": "",
                    "type": "address"
                }
            ],
            "stateMutability": "view",
            "type": "function"
        },
        {
            "inputs": [],
            "name": "renounceOwnership",
            "outputs": [],
            "stateMutability": "nonpayable",
            "type": "function"
        },
        {
            "inputs": [
                {
                    "internalType": "address",
                    "name": "_address",
                    "type": "address"
                }
            ],
            "name": "setKittyContractAddress",
            "outputs": [],
            "stateMutability": "nonpayable",
            "type": "function"
        },
        {
            "inputs": [
                {
                    "internalType": "address",
                    "name": "newOwner",
                    "type": "address"
                }
            ],
            "name": "transferOwnership",
            "outputs": [],
            "stateMutability": "nonpayable",
            "type": "function"
        }
    ],
    "bytecode": "6080604052601060018190556200001890600a620001a6565b600255620151806003553480156200002f57600080fd5b506200003b3362000041565b620001bb565b600080546001600160a01b038381166001600160a01b0319831681178455604051919092169283917f8be0079c531659141344cd1fd0a4f28419497f9722a3daafe3b4186f6b6457e09190a35050565b634e487b7160e01b600052601160045260246000fd5b600181815b80851115620000e8578160001904821115620000cc57620000cc62000091565b80851615620000da57918102915b93841c9390800290620000ac565b509250929050565b6000826200010157506001620001a0565b816200011057506000620001a0565b8160018114620001295760028114620001345762000154565b6001915050620001a0565b60ff84111562000148576200014862000091565b50506001821b620001a0565b5060208310610133831016604e8410600b841016171562000179575081810a620001a0565b620001858383620000a7565b80600019048211156200019c576200019c62000091565b0290505b92915050565b6000620001b48383620000f0565b9392505050565b610c5580620001cb6000396000f3fe608060405234801561001057600080fd5b50600436106100935760003560e01c80638da5cb5b116100665780638da5cb5b146100db578063a6fb702c14610105578063e9e5f32c14610128578063ed0a13ce14610151578063f2fde38b1461016457600080fd5b806317a7f4cc146100985780635f4623f1146100ad5780636b0bfc80146100c0578063715018a6146100d3575b600080fd5b6100ab6100a6366004610732565b610177565b005b6100ab6100bb366004610754565b610222565b6100ab6100ce366004610820565b61024c565b6100ab61036d565b6000546001600160a01b03165b6040516001600160a01b0390911681526020015b60405180910390f35b610118610113366004610870565b610381565b6040516100fc94939291906108d9565b6100e8610136366004610870565b6005602052600090815260409020546001600160a01b031681565b6100ab61015f36600461090f565b610456565b6100ab610172366004610754565b610471565b60075460405163e98b7f4d60e01b8152600481018390526000916001600160a01b03169063e98b7f4d9060240161014060405180830381865afa1580156101c2573d6000803e3d6000fd5b505050506040513d601f19601f820116820180604052508101906101e69190610961565b6040805180820190915260058152646b6974747960d81b6020820152909a5061021d99508c98508a9750955061024c945050505050565b505050565b61022a6104ef565b600780546001600160a01b0319166001600160a01b0392909216919091179055565b6000838152600560205260409020546001600160a01b0316331461026f57600080fd5b600060048481548110610284576102846109e3565b90600052602060002090600302019050600254836102a29190610a0f565b9250600060028483600101546102b89190610a39565b6102c29190610a52565b604051646b6974747960d81b602082015290915060250160405160208183030381529060405280519060200120836040516020016103009190610a66565b604051602081830303815290604052805190602001200361033e57610326606482610a0f565b6103309082610a82565b61033b906063610a39565b90505b610366604051806040016040528060068152602001654e6f4e616d6560d01b81525082610549565b5050505050565b6103756104ef565b61037f6000610685565b565b6004818154811061039157600080fd5b90600052602060002090600302016000915090508060000180546103b490610a95565b80601f01602080910402602001604051908101604052809291908181526020018280546103e090610a95565b801561042d5780601f106104025761010080835404028352916020019161042d565b820191906000526020600020905b81548152906001019060200180831161041057829003601f168201915b50505050600183015460029093015491929163ffffffff80821692506401000000009091041684565b6000610461826106d5565b905061046d8282610549565b5050565b6104796104ef565b6001600160a01b0381166104e35760405162461bcd60e51b815260206004820152602660248201527f4f776e61626c653a206e6577206f776e657220697320746865207a65726f206160448201526564647265737360d01b60648201526084015b60405180910390fd5b6104ec81610685565b50565b6000546001600160a01b0316331461037f5760405162461bcd60e51b815260206004820181905260248201527f4f776e61626c653a2063616c6c6572206973206e6f7420746865206f776e657260448201526064016104da565b60046040518060800160405280848152602001838152602001600163ffffffff1681526020016003544261057d9190610a39565b63ffffffff16905281546001810183556000928352602090922081519192600302019081906105ac9082610b1d565b50602082015160018083019190915560408301516002909201805460609094015163ffffffff9081166401000000000267ffffffffffffffff1990951693169290921792909217905560045460009161060491610a82565b600081815260056020908152604080832080546001600160a01b0319163390811790915583526006909152812080549293509061064083610bdd565b91905055507fef8fdeebda61b105f30017ffd88312335d077ca31c4d00d0d709fd8e559f740e81848460405161067893929190610bf6565b60405180910390a1505050565b600080546001600160a01b038381166001600160a01b0319831681178455604051919092169283917f8be0079c531659141344cd1fd0a4f28419497f9722a3daafe3b4186f6b6457e09190a35050565b33600090815260066020526040812054156106ef57600080fd5b6000826040516020016107029190610a66565b6040516020818303038152906040528051906020012060001c90506002548161072b9190610a0f565b9392505050565b6000806040838503121561074557600080fd5b50508035926020909101359150565b60006020828403121561076657600080fd5b81356001600160a01b038116811461072b57600080fd5b634e487b7160e01b600052604160045260246000fd5b600082601f8301126107a457600080fd5b813567ffffffffffffffff808211156107bf576107bf61077d565b604051601f8301601f19908116603f011681019082821181831017156107e7576107e761077d565b8160405283815286602085880101111561080057600080fd5b836020870160208301376000602085830101528094505050505092915050565b60008060006060848603121561083557600080fd5b8335925060208401359150604084013567ffffffffffffffff81111561085a57600080fd5b61086686828701610793565b9150509250925092565b60006020828403121561088257600080fd5b5035919050565b60005b838110156108a457818101518382015260200161088c565b50506000910152565b600081518084526108c5816020860160208601610889565b601f01601f19169290920160200192915050565b6080815260006108ec60808301876108ad565b60208301959095525063ffffffff92831660408201529116606090910152919050565b60006020828403121561092157600080fd5b813567ffffffffffffffff81111561093857600080fd5b61094484828501610793565b949350505050565b8051801515811461095c57600080fd5b919050565b6000806000806000806000806000806101408b8d03121561098157600080fd5b61098a8b61094c565b995061099860208c0161094c565b985060408b0151975060608b0151965060808b0151955060a08b0151945060c08b0151935060e08b015192506101008b015191506101208b015190509295989b9194979a5092959850565b634e487b7160e01b600052603260045260246000fd5b634e487b7160e01b600052601260045260246000fd5b600082610a1e57610a1e6109f9565b500690565b634e487b7160e01b600052601160045260246000fd5b80820180821115610a4c57610a4c610a23565b92915050565b600082610a6157610a616109f9565b500490565b60008251610a78818460208701610889565b9190910192915050565b81810381811115610a4c57610a4c610a23565b600181811c90821680610aa957607f821691505b602082108103610ac957634e487b7160e01b600052602260045260246000fd5b50919050565b601f82111561021d57600081815260208120601f850160051c81016020861015610af65750805b601f850160051c820191505b81811015610b1557828155600101610b02565b505050505050565b815167ffffffffffffffff811115610b3757610b3761077d565b610b4b81610b458454610a95565b84610acf565b602080601f831160018114610b805760008415610b685750858301515b600019600386901b1c1916600185901b178555610b15565b600085815260208120601f198616915b82811015610baf57888601518255948401946001909101908401610b90565b5085821015610bcd5787850151600019600388901b60f8161c191681555b5050505050600190811b01905550565b600060018201610bef57610bef610a23565b5060010190565b838152606060208201526000610c0f60608301856108ad565b905082604083015294935050505056fea26469706673582212207a1cc5ff6431fe71897a3260aef3a589e523feadaf9a4e03aac2cb1db322cf8764736f6c63430008130033",
    "sourcePath": "/Users/coates/Documents/courses/madmonkeys/contracts/MonkeyFeeding.sol",
    "compiler": {
        "name": "solc",
        "version": "0.8.19+commit.7dd6d404"
    },
    "functionHashes": {
        "createRandomMonkey(string)": "ed0a13ce",
        "feedAndMultiply(uint256,uint256,string)": "6b0bfc80",
        "feedOnKitty(uint256,uint256)": "17a7f4cc",
        "monkeyToOwner(uint256)": "e9e5f32c",
        "monkeys(uint256)": "a6fb702c",
        "owner()": "8da5cb5b",
        "renounceOwnership()": "715018a6",
        "setKittyContractAddress(address)": "5f4623f1",
        "transferOwnership(address)": "f2fde38b"
    },
    "gasEstimates": {
        "creation": {
            "codeDepositCost": "631400",
            "executionCost": "93150",
            "totalCost": "724550"
        },
        "external": {
            "createRandomMonkey(string)": "infinite",
            "feedAndMultiply(uint256,uint256,string)": "infinite",
            "feedOnKitty(uint256,uint256)": "infinite",
            "monkeyToOwner(uint256)": "2510",
            "monkeys(uint256)": "infinite",
            "owner()": "2309",
            "renounceOwnership()": "infinite",
            "setKittyContractAddress(address)": "26723",
            "transferOwnership(address)": "28386"
        },
        "internal": {
            "_isReady(struct MonkeyFactory.Monkey storage pointer)": "infinite",
            "_triggerCooldown(struct MonkeyFactory.Monkey storage pointer)": "infinite"
        }
    }
}