{
    "contractName": "MonkeyFactory",
    "abi": [
        {
            "anonymous": false,
            "inputs": [
                {
                    "indexed": false,
                    "internalType": "uint256",
                    "name": "monkeyId",
                    "type": "uint256"
                },
                {
                    "indexed": false,
                    "internalType": "string",
                    "name": "name",
                    "type": "string"
                },
                {
                    "indexed": false,
                    "internalType": "uint256",
                    "name": "dna",
                    "type": "uint256"
                }
            ],
            "name": "NewMonkey",
            "type": "event"
        },
        {
            "inputs": [
                {
                    "internalType": "string",
                    "name": "_name",
                    "type": "string"
                }
            ],
            "name": "createRandomMonkey",
            "outputs": [],
            "stateMutability": "nonpayable",
            "type": "function"
        },
        {
            "inputs": [
                {
                    "internalType": "uint256",
                    "name": "",
                    "type": "uint256"
                }
            ],
            "name": "monkeyToOwner",
            "outputs": [
                {
                    "internalType": "address",
                    "name": "",
                    "type": "address"
                }
            ],
            "stateMutability": "view",
            "type": "function"
        },
        {
            "inputs": [
                {
                    "internalType": "uint256",
                    "name": "",
                    "type": "uint256"
                }
            ],
            "name": "monkeys",
            "outputs": [
                {
                    "internalType": "string",
                    "name": "name",
                    "type": "string"
                },
                {
                    "internalType": "uint256",
                    "name": "dna",
                    "type": "uint256"
                }
            ],
            "stateMutability": "view",
            "type": "function"
        }
    ],
    "bytecode": "60806040526010600081905561001690600a610127565b60015534801561002557600080fd5b5061013a565b634e487b7160e01b600052601160045260246000fd5b600181815b8085111561007c5781600019048211156100625761006261002b565b8085161561006f57918102915b93841c9390800290610046565b509250929050565b60008261009357506001610121565b816100a057506000610121565b81600181146100b657600281146100c0576100dc565b6001915050610121565b60ff8411156100d1576100d161002b565b50506001821b610121565b5060208310610133831016604e8410600b84101617156100ff575081810a610121565b6101098383610041565b806000190482111561011d5761011d61002b565b0290505b92915050565b60006101338383610084565b9392505050565b61066e806101496000396000f3fe608060405234801561001057600080fd5b50600436106100415760003560e01c8063a6fb702c14610046578063e9e5f32c14610070578063ed0a13ce146100b1575b600080fd5b6100596100543660046102ee565b6100c6565b604051610067929190610357565b60405180910390f35b61009961007e3660046102ee565b6003602052600090815260409020546001600160a01b031681565b6040516001600160a01b039091168152602001610067565b6100c46100bf36600461038f565b610182565b005b600281815481106100d657600080fd5b90600052602060002090600202016000915090508060000180546100f990610440565b80601f016020809104026020016040519081016040528092919081815260200182805461012590610440565b80156101725780601f1061014757610100808354040283529160200191610172565b820191906000526020600020905b81548152906001019060200180831161015557829003601f168201915b5050505050908060010154905082565b600061018d8261019d565b905061019982826101fa565b5050565b33600090815260046020526040812054156101b757600080fd5b6000826040516020016101ca919061047a565b6040516020818303038152906040528051906020012060001c9050600154816101f39190610496565b9392505050565b6040805180820190915282815260208101829052600280546001810182556000829052825191027f405787fa12a823e0f2b7631cc41b3ba8828b3321ca811111fa75cd3aa3bb5ace019081906102509082610507565b506020919091015160019182015560025460009161026d916105dd565b600081815260036020908152604080832080546001600160a01b031916339081179091558352600490915281208054929350906102a9836105f6565b91905055507fef8fdeebda61b105f30017ffd88312335d077ca31c4d00d0d709fd8e559f740e8184846040516102e19392919061060f565b60405180910390a1505050565b60006020828403121561030057600080fd5b5035919050565b60005b8381101561032257818101518382015260200161030a565b50506000910152565b60008151808452610343816020860160208601610307565b601f01601f19169290920160200192915050565b60408152600061036a604083018561032b565b90508260208301529392505050565b634e487b7160e01b600052604160045260246000fd5b6000602082840312156103a157600080fd5b813567ffffffffffffffff808211156103b957600080fd5b818401915084601f8301126103cd57600080fd5b8135818111156103df576103df610379565b604051601f8201601f19908116603f0116810190838211818310171561040757610407610379565b8160405282815287602084870101111561042057600080fd5b826020860160208301376000928101602001929092525095945050505050565b600181811c9082168061045457607f821691505b60208210810361047457634e487b7160e01b600052602260045260246000fd5b50919050565b6000825161048c818460208701610307565b9190910192915050565b6000826104b357634e487b7160e01b600052601260045260246000fd5b500690565b601f82111561050257600081815260208120601f850160051c810160208610156104df5750805b601f850160051c820191505b818110156104fe578281556001016104eb565b5050505b505050565b815167ffffffffffffffff81111561052157610521610379565b6105358161052f8454610440565b846104b8565b602080601f83116001811461056a57600084156105525750858301515b600019600386901b1c1916600185901b1785556104fe565b600085815260208120601f198616915b828110156105995788860151825594840194600190910190840161057a565b50858210156105b75787850151600019600388901b60f8161c191681555b5050505050600190811b01905550565b634e487b7160e01b600052601160045260246000fd5b818103818111156105f0576105f06105c7565b92915050565b600060018201610608576106086105c7565b5060010190565b838152606060208201526000610628606083018561032b565b905082604083015294935050505056fea264697066735822122087751b36c8edfeaa5719aa85891bd23ea1fc6f6f7dc31da3da883e0c5bcc508064736f6c63430008130033",
    "sourcePath": "/Users/coates/Documents/courses/madmonkeys/contracts/MonkeyFactory.sol",
    "compiler": {
        "name": "solc",
        "version": "0.8.19+commit.7dd6d404"
    },
    "functionHashes": {
        "createRandomMonkey(string)": "ed0a13ce",
        "monkeyToOwner(uint256)": "e9e5f32c",
        "monkeys(uint256)": "a6fb702c"
    },
    "gasEstimates": {
        "creation": {
            "codeDepositCost": "329200",
            "executionCost": "44919",
            "totalCost": "374119"
        },
        "external": {
            "createRandomMonkey(string)": "infinite",
            "monkeyToOwner(uint256)": "2477",
            "monkeys(uint256)": "infinite"
        },
        "internal": {
            "_createMonkey(string memory,uint256)": "infinite",
            "_generateRandomDna(string memory)": "infinite"
        }
    }
}